:020000040800F2
:1000000070040020C10100082314000871130008C7
:1000100021140008CD020008751600080000000039
:10002000000000000000000000000000871400082D
:10003000CF02000800000000251400088914000801
:10004000DB010008DB010008DB010008DB01000820
:10005000DB010008DB010008DB010008DB01000810
:10006000DB010008DB010008DB010008DB01000800
:10007000DB010008DB010008DB010008DB010008F0
:10008000DB010008DB010008DB010008DB010008E0
:10009000DB010008DB010008DB010008DB010008D0
:1000A000DB010008DB010008DB010008DB010008C0
:1000B000DB010008DB010008DB010008DB010008B0
:1000C000DB010008DB010008DB010008DB010008A0
:1000D000DB010008DB010008DB010008DB01000890
:1000E000DB01000829140008DB010008DB0100081F
:1000F000DB010008DB010008DB010008DB01000870
:10010000DB010008DB010008DB010008DB0100085F
:10011000DB010008DB010008DB010008DB0100084F
:10012000DB010008DB010008DB010008DB0100083F
:10013000DB010008DB010008DB010008DB0100082F
:10014000DB010008DB010008DB010008DB0100081F
:10015000DB010008DB010008DB010008DB0100080F
:10016000DB010008DB010008DB010008DB010008FF
:10017000DB010008DB010008DB01000800000000D3
:10018000DB010008DB010008DB010008DB010008DF
:10019000DB010008DB010008DB010008DB010008CF
:1001A000DB010008DB010008DB010008DFF80CD0F0
:1001B00000F07AF800480047B516000870040020E7
:1001C0000648804706480047FEE7FEE7FEE7FEE7F1
:1001D000FEE7FEE7FEE7FEE7FEE7FEE73115000873
:1001E000AD0100082DE9F05F0546002092469B46D0
:1001F00088460646814640241BE02846414647463D
:10020000224600F041F853465A46C01A914110D395
:1002100011461846224600F028F82D1A67EB01080F
:100220004F4622460120002100F01FF817EB00097D
:100230004E41201EA4F10104DFDC484631462A4627
:100240004346BDE8F09FD2B201E000F8012B491E01
:10025000FBD270470022F6E710B513460A46044663
:100260001946FFF7F0FF204610BD202A04DB203A94
:1002700000FA02F1002070479140C2F1200320FAF9
:1002800003F3194390407047202A04DB203A21FAF7
:1002900002F00021704721FA02F3D040C2F120029F
:1002A0009140084319467047064C074D06E0E06848
:1002B00040F0010394E8070098471034AC42F6D3AD
:1002C000FFF778FF3C1700085C170008FEE770474F
:1002D0002DE9F84F00224FF0010803254FF00F0ED3
:1002E0000B6808FA02F42340A3426ED14E68012E37
:1002F00005D0022E03D0112E01D0122E12D1866805
:100300004FEA420C05FA0CF7BE43CF6807FA0CF728
:10031000374387604668A6430C79C4F300149440C1
:1003200034434460C668570005FA07FC8C6826EA27
:100330000C06BC403443C4604C68022C01D0122C23
:1003400013D1D40800EB8404A346D4F820905407BA
:100350004FEAD46A0EFA0AF629EA06090E6906FA85
:100360000AF646EA0906CBF8206004680E7924EA0A
:100370000C0406F00306BE40264306604C68E40009
:100380006FD53B4C266846F480462660246822F0F0
:10039000030604F480440094364C3444A446D4F854
:1003A00008489607360F0EFA06F7BC43324FB8429C
:1003B00001D100272EE0314FB84201D1012729E0B9
:1003C0002F4FB84202D1022724E04AE02D4FB84215
:1003D00001D103271EE02C4FB84201D1042719E0B8
:1003E0002A4FB84201D1052714E0294FB84201D164
:1003F00006270FE0274FB84201D107270AE0264F12
:10040000B84201D1082705E0244FB84201D109279D
:1004100000E00A27B7402743CCF80878204E34681C
:100420004F689C43FF0300D51C4334601C4E361DAF
:1004300034684F689C43BF0300D51C433460184E9A
:10044000083634684F689C43FF0200D51C43346073
:10045000134E0C3634684F689C43BF0200D51C43D2
:100460003460521C102AFFF43BAFBDE8F88F000047
:1004700044380240003001400000024000040240C5
:1004800000080240000C024000100240001402402C
:1004900000180240001C02400020024000240240DC
:1004A000003C0140014880687047000000000020C7
:1004B0000248816802781144816070470000002082
:1004C0000B4810B5016841F400710160016841F406
:1004D00080610160016841F480710160032000F0D7
:1004E0006FF8002000F006F800F024F8002010BD9E
:1004F000003C024070B50D4D04464FF47A712878E7
:10050000B1FBF0F00A490968B1FBF0F000F0B5FE6C
:1005100048B9102C07D200222146501E00F030F8B6
:1005200000206C6070BD012070BD00000000002044
:100530000C0000200A4808B5016841F480410160C0
:10054000006800F4804000900548001F016841F0F9
:1005500080510160006800F08050009008BD0000EC
:1005600044380240002809DB00F01F0201219140BD
:100570004009800000F1E020C0F800117047000041
:10058000F0B40E4B1B680C46C3F30223C3F10705FE
:10059000042D00D90425191D072901D2002300E0EC
:1005A000DB1E012606FA05F1491E214099409E40B6
:1005B000761E16403143F0BC01F05DB80CED00E052
:1005C000064900F0070208684FF6FF03184040EAAA
:1005D0000220034A10430860704700000CED00E061
:1005E0000000FA052DE9F8431748016841F08051F1
:1005F00001600068154F00F08050012600903E64B5
:10060000FFF750FF05464FF47A78114C05E000BF24
:10061000FFF748FF401B40450DD86068C003F7D581
:100620007E64FFF73FFF0546464607E0FFF73AFFC7
:10063000401BB04202D90320BDE8F8836068800304
:10064000F4D50020F8E700004038024000000E42D8
:10065000007000402DE9F84F04460068DFF824A23E
:10066000894F8A4DC1074FF001084FF0000603D1B2
:10067000810701D4400648D5CAF86860FFF712FF29
:10068000814605E0FFF70EFFA0EB090002287DD8A8
:1006900028680001F6D42078C1077D4805D061683C
:1006A000227A890141EA027101602178890711D516
:1006B00001686268237B9201C1F3027142EA03621E
:1006C00042EA017101603968E26921F01F01521E9E
:1006D000114339602178490608D56168227B890178
:1006E00041EA0261227A41EA02710160CAF8688037
:1006F000FFF7D8FE814605E0FFF7D4FEA0EB090026
:10070000022843D828680001F6D52068410701D4A3
:1007100000074ED5CAF87060FFF7C4FE814605E0B9
:10072000FFF7C0FEA0EB090002282FD82868C043BD
:100730008000F5D520784107564814D50168226914
:10074000237D9201C1F3027142EA036242EA017120
:1007500001603968226A6FF0FF0321F4F85103EB5E
:100760000222114339602178090712D501682269F4
:10077000C1F30361920142EA0161227E41EA027102
:1007800001603868616A20F4403000E051E00843BD
:100790003860CAF87080FFF785FE074605E000BFA5
:1007A000FFF780FEC01B022843D82868C0438000A2
:1007B000F6D42078800653D534484030016841F0A3
:1007C000805101600068344D00F08050009028682E
:1007D00040F480702860FFF765FE074605E000BF23
:1007E000FFF760FEC01B022823D82868C005F7D594
:1007F000274D143D286810F4407020D0218D01F45D
:10080000407181421BD0286820F440712348C0F811
:100810000080066029602868C00710D0FFF742FEFC
:10082000064641F2883707E0FFF73CFE801BB842DE
:1008300002D90320BDE8F88F28688007F4D5A16AA3
:100840001248C1F301220830032A13D0016821F4B1
:10085000F81101602868218DC1F30B01084328605D
:100860002078C00604D50E4994F82C00C1F8E001A8
:100870000020DFE702680B4B22F4F81219400A430C
:100880000260E7E7000047428C380240003802402F
:10089000843802408838024000700040400E4742D1
:1008A00000104742FFFCFF0F2DE9F0470E46050000
:1008B00065D0DFF81481D8F80000F7B200F00F001F
:1008C000B04207D288F80070D8F8000000F00F009E
:1008D000B04254D128683D4C810712D5400703D55A
:1008E000206840F4E05020602878000703D5206895
:1008F00040F4604020602068A96820F0F0000843C0
:1009000020602878C0072DD0304968680839012850
:1009100012D0022813D0032811D0096889070029B2
:100920002DDA216821F0030101432160FFF7BAFDB0
:10093000814641F2883A0EE009688903EFE70968C9
:100940008901ECE7FFF7AEFDA0EB0901514502D9A3
:100950000320BDE8F0872068696800F00C00B0EB68
:10096000810FEFD1D8F80010404601F00F01B142DD
:1009700007D90770006800F00F00B04201D00120D5
:10098000E7E72878400705D52068E96820F4E050BB
:10099000084320602878000706D52068296920F4DC
:1009A000604040EAC100206000F038F82168084A41
:1009B000C1F30311515CC84006490860064800684D
:1009C000FFF798FD0020C4E7003C024008380240D1
:1009D000241700080C0000200400002004480549EA
:1009E00000680968044AC1F38221515CC84070471D
:1009F0000C0000200838024034170008044805495C
:100A000000680968044AC1F34231515CC84070472C
:100A10000C0000200838024034170008154810B5B3
:100A2000006810F00C02144813D01449042A0FD0A7
:100A3000082A0ED10F4C241F2268236802F03F02BF
:100A40005B0207D52068C0F38810A0FB010106E017
:100A5000084610BD2168C1F38811A1FB00010023E5
:100A6000FFF7C0FB2168C1F30141491C4900B0FBFD
:100A7000F1F010BD083802400024F40040787D01F8
:100A80002DE9F84F04006ED02078DFF83C93C007C2
:100A9000A9F104054AD009F104000168C1F38101FC
:100AA000012908D00068C0F3810002280AD1D9F8D2
:100AB0000000400206D52868800337D5606800280A
:100AC000E1D033E06068B0F5803F10D0B0F5A02FE2
:100AD000286810D020F480302860286820F4802016
:100AE00028606068A8B1FFF7DDFC06460DE02868C5
:100AF00040F48030F4E740F480202860F7E700BF3E
:100B0000FFF7D0FC801B642873D828688003F7D5D2
:100B10000CE0FFF7C7FC064605E000BFFFF7C2FC8C
:100B2000801B6428F0D828688003F7D42078DFF889
:100B30009C8280074FF0000A3ED5A348001D016843
:100B400011F00C0F08D00068C0F3810002280BD10F
:100B5000D9F80000400207D42868800716D5E0685D
:100B6000012800D112E02BE1E068B8B10120C8F8FB
:100B70000000FFF797FC064605E000BFFFF792FC78
:100B8000801B0228C0D828688007F7D5286821690B
:100B900020F0F80040EAC10028600DE0C8F800A08D
:100BA000FFF780FC064604E0FFF77CFC801B022870
:100BB0001FD828688007F7D42078000722D5824EF6
:100BC00083486169703671B101210160FFF76AFCE9
:100BD000074604E0FFF766FCC01B022809D830680E
:100BE0008007F7D50EE0C0F800A0FFF75BFC0746D2
:100BF00005E082E0FFF756FCC01B02287DD8306874
:100C00008007F7D42078400768D5DFF8BCB100270B
:100C10000BF13C0BDBF80000C0000BD4DBF800103C
:100C200041F08051CBF80010DBF80000012700F004
:100C300080500090674E3068C00510D4306840F492
:100C400080703060FFF72EFC009005E0FFF72AFC73
:100C50000099401A022850D83068C005F6D55A4E7F
:100C6000A0686C3601280FD00528306810D020F01D
:100C700001003060306820F004003060A068B8B136
:100C8000FFF710FC00900FE0306840F00100F4E73F
:100C900040F004003060F7E7FFF704FC0099411AC8
:100CA00041F28830814266D830688007F4D50EE082
:100CB000FFF7F8FB009007E0FFF7F4FB0099411AFB
:100CC00041F28830814256D830688007F4D42FB181
:100CD000DBF8001021F08051CBF80010A069C8B3F8
:100CE0003949091D0968C1F3810102294AD0022846
:100CF000504607D0C8F8600000E03CE0FFF7D2FBA8
:100D000004463BE04746C8F86000FFF7CBFB0646C9
:100D100005E000BFFFF7C6FB801B02282BD8286820
:100D20008001F7D4D4E907010843A16A2A4A490897
:100D300002EB0141626A41EA8211084394F82C10E7
:100D400040EA0161C9F8001001203866FFF7AAFBEC
:100D5000044606E036E000BFFFF7A4FB001B0228B4
:100D600009D828688001F7D52CE000BFFFF79AFB6F
:100D7000001B022802D90320BDE8F88F28688001F3
:100D8000F4D41FE00128F7D0D9F80000E26900F49C
:100D90008001914214D1226A00F03F0191420FD1AB
:100DA00047F6C071626A0140914209D1A26A00F41B
:100DB0004031914204D1E16A00F07060884201D074
:100DC0000120D9E70020D7E704380240000047425D
:100DD000800E4742007000400000FFFF70477047E0
:100DE00010B5044600688168C9040CD5C068C00508
:100DF00009D52046FFF7F3FF2068C16801F08001A4
:100E000061F4C071C1602068816889040CD5C06834
:100E1000800509D52046FFF7E1FF2068C16801F091
:100E2000800161F42071C16003494FF40030086013
:100E30000120607710BD0000143C014070B5040033
:100E400002D0607F10B106E0012070BD0020207745
:100E5000204600F049F8022060772168CA204862E5
:100E6000216853204862204600F0F0FAFF2504264E
:100E700018BB206881681B4A11408160216888681E
:100E800062681043D4E904231A4310438860216840
:100E9000E068086120680169228941EA0241016134
:100EA0002068C16821F08001C160206880688006E8
:100EB00007D4204600F0C6F918B12068456266776D
:100EC000C2E72068016C21F4802101642068016C74
:100ED000A269114301642068456201206077002007
:100EE00070BD0000BFFF8FFF10B500680849884241
:100EF0000CD1084901200860002211462920FFF783
:100F00003FFBBDE810402920FFF72CBB10BD0000BF
:100F1000002800403C0E4742F8B503465A480C46AC
:100F20004FF4FA410068B0FBF1F0491148430090DA
:100F3000187F012863D001261E7702205877186891
:100F40000025002A80684FEA40605AD0002800DB64
:100F5000E570A0782278E77840EA02406278E1699B
:100F6000120242EA0742104394F8202040EA02604D
:100F700008436169A269084361681F681143CA2276
:100F80007A621F6853227A62626AFF27B2F5807F15
:100F90001A684FF0030C94684ED024F400749460E7
:100FA0001A68D46804F0800464F42074D4601A6869
:100FB000009CB4F1010ECDF800E05ED3D468A40724
:100FC000F6D51062186881641868816841F4007170
:100FD00081601868816841F4005181602B48016884
:100FE00041F40031016029480830016841F40031C2
:100FF0000160186847625E771D770020F8BD022007
:10100000F8BD002800DBE570207800F013FA020438
:10101000607800F00FFA42EA0022A07800F00AFAA5
:101020000243E07842EA004294F8200000F002FA1D
:1010300042EA0060E1699BE724F4807494601A68D6
:10104000D46804F0800464F4C074D4601A68009C0E
:10105000B4F1010ECDF800E00FD3D468E407F6D068
:10106000D061186841641868816841F480718160BA
:101070001868816841F48051AFE7576283F81DC05A
:101080001D770320F8BD00000C000020003C01404B
:101090002DE9F0470446007F0B4601281FD04FF092
:1010A000010984F81C9002206077DAB19878D97829
:1010B00040EA014558781978000240EA413005437A
:1010C0002168CA204862216853204862204600F007
:1010D000BDF90026FF274FF0040860BB1AE002208C
:1010E000BDE8F0875878C10603D500F0EF000A305C
:1010F0005870D87800F09EF90204587800F09AF9F8
:1011000042EA0022987800F095F90243187842EA02
:101110004035D5E70F480540206845602068C16824
:1011200021F08001C1602068806880060AD42046D2
:1011300000F088F830B12068476284F81D80267777
:101140000120CDE72068476284F81D9026770020B3
:10115000C6E700003FFFFF002DE9F0470446007F8F
:101160000D46012827D04FF0010A84F81CA0022068
:1011700060772068002680684FEA4060F2B100285E
:1011800000DBEE70A878297840EA01476878E978B2
:10119000000240EA014007432168CA2048622168F2
:1011A00053204862204600F051F94FF0FF084FF0FD
:1011B0000409A0BB16E00220BDE8F087002800DB90
:1011C000EE70287800F036F90204687800F032F901
:1011D00042EA0022A87800F02DF90243E87842EABA
:1011E0000047D9E7164807402068076020688168F3
:1011F00021F480218160D5E90301084321688A68D0
:10120000104388602068C16821F08001C1602068B7
:10121000806880060BD4204600F014F838B12168AD
:10122000C1F8248084F81D9026770120C4E7216846
:10123000C1F8248084F81DA026770020BCE70000B8
:101240007F7F7F0070B504460068C16821F0A0016F
:10125000C160FFF727F905464FF47A7607E000BF33
:10126000FFF720F9401BB04201D9032070BD206870
:10127000C0688006F4D5002070BD10B5401EB0F1E6
:10128000807F01D3012010BD4FF0E02460610F2169
:10129000601700F0F0F90020A06107202061002015
:1012A00010BD70B5040004D094F83900002510B1C9
:1012B00006E0012070BD84F83850204600F022F886
:1012C000242084F839002068C16821F40051C160ED
:1012D000204600F03BF92068016921F4904101614A
:1012E0002068416921F02A0141612068C16841F408
:1012F0000051C160E563202084F8390084F83A0089
:10130000002070BD10B586B0044614216846FEF773
:10131000A1FF14492068884221D11348016841F493
:1013200000210160006800F4002005900E4810388C
:10133000016841F0040101600068694600F00400A2
:1013400005904FF44060009002200190012002902F
:1013500003200390082004900448FEF7B9FF06B06C
:1013600010BD0000004C0040403802400008024020
:10137000FEE7000030B591B014210AA8FEF76AFF1D
:101380000024282168460F94FEF764FF2348224971
:10139000C0E900147F218160FF21C0E9031444618A
:1013A0008461FFF74BFD0E208DF828002D208DF86D
:1013B000290003208DF82A000D9400220AA917485D
:1013C0000E94FFF7C9FE01258DF83C5006208DF8DC
:1013D0003D001D208DF83E0014208DF83F000022B6
:1013E0000FA90E48FFF754FE8DF800408DF801401C
:1013F0000A208DF8020004942802019403940990B5
:101400000594069407948DF82050002269460348FD
:10141000FFF782FD11B030BD002800401000002011
:10142000FEE77047704700000148FFF7D9BC000095
:1014300010000020002102E00A38C0B2491C0A282E
:10144000FAD2090740EA11607047000070B50446FF
:101450000068C168490614D44FF0FF31C160FFF73E
:1014600021F805464FF47A7607E000BFFFF71AF837
:10147000401BB04201D9032070BD2068C0684006FF
:10148000F4D5002070BD7047FFF712B830B59FB09B
:1014900030216846FEF7DEFE142118A8FEF7DAFEBA
:1014A00030210CA8FEF7D6FE1F480025016841F048
:1014B00080510160006800F080501D901B48016859
:1014C00041F4404101600068022400F440401D9056
:1014D0000620009005200290012003901020049027
:1014E00006940820CDE90750B420CDE90904042072
:1014F0000B906846FFF7C4FAFFF774F818A90F209D
:1015000081E831004FF4A0501B90E0021C900521AF
:1015100018A8FFF7C9F920200C90C00016900CA85D
:10152000FFF798F81FB030BD40380240007000400F
:101530000548016841F47001016003494FF0006003
:10154000803908607047000088ED00E02DE9F04127
:10155000044600680169E26821F4405111430161C9
:101560002169A068E2690843616911430843216861
:10157000CA6849F20C639A430243CA602068416911
:10158000A26921F4407111434161E0691927642582
:101590003226B0F5004F354A354920684FF0000833
:1015A00006D0884201D0904236D1FFF727FA35E0C5
:1015B000884201D0904202D1FFF720FA01E0FFF704
:1015C0000DFA61684A18A0FB070148EB0803FEF713
:1015D00009FE0146B0FBF5F00201B1FBF5F06FF03A
:1015E0001803584301EB800006EBC000B0FBF5F098
:1015F00000F0F80002EB4002B1FBF5F0584301EBBC
:10160000800006EBC000B0FBF5F000F00700216899
:1016100010448860BDE8F081FFF7E0F961688B0F46
:101620008A00A0FB0701FEF7DDFD0146B0FBF5F0E7
:101630006FF01802504301EB800006EB0010B0FB86
:10164000F5F000F0F002B1FBF5F002EB0012B1FB97
:10165000F5F06FF01803584301EB800006EB001023
:10166000B0FBF5F000F00F00D1E7000000140140DE
:1016700000100140FEE70907090E002804DB00F115
:10168000E02080F80014704700F00F0000F1E02027
:1016900080F8141D704702E008C8121F08C1002A14
:1016A000FAD170477047002001E001C1121F002AE3
:1016B000FBD1704708B5FEF703FFFFF7E7FE1648BA
:1016C0000024016841F004010160016801F0040197
:1016D0000091016841F080010160016801F0800122
:1016E0000091016841F001010160006800F0010013
:1016F0000090FFF73FFE0A48084901604FF4964109
:10170000C0E901140C21C460C0E904418461C461D2
:10171000FFF7C7FDFEE7000030380240004C0040F4
:10172000300000200000000000000000010203045F
:101730000607080900000000010203045C17000806
:101740000000002010000000961600086C1700082A
:101750001000002060040000A61600080100000030
:0C17600010000000000000000024F40055
:04000005080001AD41
:00000001FF
