:020000040800F2
:1000000090040020C10100089B140008E9130008B7
:1000100099140008CD020008FD1600080000000039
:100020000000000000000000000000000F150008A4
:10003000CF020008000000009D1400081115000800
:10004000DB010008DB010008DB010008DB01000820
:10005000DB010008DB010008DB010008DB01000810
:10006000DB010008DB010008DB010008DB01000800
:10007000DB010008DB010008DB010008DB010008F0
:10008000DB010008DB010008DB010008DB010008E0
:10009000DB010008DB010008DB010008DB010008D0
:1000A000DB010008DB010008DB010008DB010008C0
:1000B000DB010008DB010008DB010008DB010008B0
:1000C000DB010008DB010008DB010008DB010008A0
:1000D000DB010008DB010008DB010008DB01000890
:1000E000DB010008A1140008DB010008DB010008A7
:1000F000DB010008DB010008DB010008DB01000870
:10010000DB010008DB010008DB010008DB0100085F
:10011000DB010008DB010008DB010008DB0100084F
:10012000DB010008DB010008DB010008DB0100083F
:10013000DB010008DB010008DB010008DB0100082F
:10014000DB010008DB010008DB010008DB0100081F
:10015000DB010008DB010008DB010008DB0100080F
:10016000DB010008DB010008DB010008DB010008FF
:10017000DB010008DB010008DB01000800000000D3
:10018000DB010008DB010008DB010008DB010008DF
:10019000DB010008DB010008DB010008DB010008CF
:1001A000DB010008DB010008DB010008DFF80CD0F0
:1001B00000F07AF8004800473D170008900400203E
:1001C0000648804706480047FEE7FEE7FEE7FEE7F1
:1001D000FEE7FEE7FEE7FEE7FEE7FEE7B9150008EB
:1001E000AD0100082DE9F05F0546002092469B46D0
:1001F00088460646814640241BE02846414647463D
:10020000224600F041F853465A46C01A914110D395
:1002100011461846224600F028F82D1A67EB01080F
:100220004F4622460120002100F01FF817EB00097D
:100230004E41201EA4F10104DFDC484631462A4627
:100240004346BDE8F09FD2B201E000F8012B491E01
:10025000FBD270470022F6E710B513460A46044663
:100260001946FFF7F0FF204610BD202A04DB203A94
:1002700000FA02F1002070479140C2F1200320FAF9
:1002800003F3194390407047202A04DB203A21FAF7
:1002900002F00021704721FA02F3D040C2F120029F
:1002A0009140084319467047064C074D06E0E06848
:1002B00040F0010394E8070098471034AC42F6D3AD
:1002C000FFF778FFF817000818180008FEE77047D6
:1002D00070B5044600F0F8F80546601C02D00448EA
:1002E0000078044400F0F0F8401BA042FAD370BD3F
:1002F000080000202DE9F84F00224FF001080325E7
:100300004FF00F0E0B6808FA02F42340A3426ED19F
:100310004E68012E05D0022E03D0112E01D0122ED0
:1003200012D186684FEA420C05FA0CF7BE43CF683B
:1003300007FA0CF7374387604668A6430C79C4F385
:100340000014944034434460C668570005FA07FC23
:100350008C6826EA0C06BC403443C4604C68022C0E
:1003600001D0122C13D1D40800EB8404A346D4F896
:10037000209054074FEAD46A0EFA0AF629EA0609D1
:100380000E6906FA0AF646EA0906CBF82060046808
:100390000E7924EA0C0406F00306BE4026430660EC
:1003A0004C68E4006FD53B4C266846F480462660D6
:1003B000246822F0030604F480440094364C34444C
:1003C000A446D4F808489607360F0EFA06F7BC4341
:1003D000324FB84201D100272EE0314FB84201D14F
:1003E000012729E02F4FB84202D1022724E04AE03A
:1003F0002D4FB84201D103271EE02C4FB84201D146
:10040000042719E02A4FB84201D1052714E0294FEB
:10041000B84201D106270FE0274FB84201D1072784
:100420000AE0264FB84201D1082705E0244FB84220
:1004300001D1092700E00A27B7402743CCF8087804
:10044000204E34684F689C43FF0300D51C43346042
:100450001C4E361D34684F689C43BF0300D51C43B7
:100460003460184E083634684F689C43FF0200D54C
:100470001C433460134E0C3634684F689C43BF02F3
:1004800000D51C433460521C102AFFF43BAFBDE87A
:10049000F88F000044380240003001400000024064
:1004A0000004024000080240000C0240001002401C
:1004B0000014024000180240001C024000200240CC
:1004C00000240240003C0140014880687047000061
:1004D000080000200248816802781144816070475A
:1004E000080000200B4810B5016841F4007101605C
:1004F000016841F480610160016841F4807101602C
:10050000032000F06FF8002000F006F800F024F857
:10051000002010BD003C024070B50D4D04464FF464
:100520007A712878B1FBF0F00A490968B1FBF0F064
:1005300000F0DFFE48B9102C07D200222146501EE1
:1005400000F030F800206C6070BD012070BD00002C
:1005500008000020140000200A4808B5016841F492
:1005600080410160006800F4804000900548001F51
:10057000016841F080510160006800F080500090F7
:1005800008BD000044380240002809DB00F01F02CB
:10059000012191404009800000F1E020C0F80011E5
:1005A00070470000F0B40E4B1B680C46C3F30223E7
:1005B000C3F10705042D00D90425191D072901D20F
:1005C000002300E0DB1E012606FA05F1491E21404A
:1005D00099409E40761E16403143F0BC01F08FB822
:1005E0000CED00E0064900F0070208684FF6FF0333
:1005F000184040EA0220034A104308607047000098
:100600000CED00E00000FA052DE9F84317480168F9
:1006100041F0805101600068154F00F080500126C4
:1006200000903E64FFF750FF05464FF47A78114C76
:1006300005E000BFFFF748FF401B40450DD860684C
:10064000C003F7D57E64FFF73FFF0546464607E047
:10065000FFF73AFF401BB04202D90320BDE8F88300
:1006600060688003F4D50020F8E7000040380240BD
:1006700000000E42007000402DE9F84F044600686B
:10068000DFF824A2894F8A4DC1074FF001084FF0CF
:10069000000603D1810701D4400648D5CAF8686036
:1006A000FFF712FF814605E0FFF70EFFA0EB090000
:1006B00002287DD828680001F6D42078C1077D483B
:1006C00005D06168227A890141EA027101602178CE
:1006D000890711D501686268237B9201C1F3027119
:1006E00042EA036242EA017101603968E26921F07D
:1006F0001F01521E114339602178490608D56168EF
:10070000227B890141EA0261227A41EA0271016099
:10071000CAF86880FFF7D8FE814605E0FFF7D4FEEF
:10072000A0EB0900022843D828680001F6D520680C
:10073000410701D400074ED5CAF87060FFF7C4FE28
:10074000814605E0FFF7C0FEA0EB090002282FD884
:100750002868C0438000F5D520784107564814D555
:1007600001682269237D9201C1F3027142EA0362AA
:1007700042EA017101603968226A6FF0FF0321F4D7
:10078000F85103EB0222114339602178090712D591
:1007900001682269C1F30361920142EA0161227E8C
:1007A00041EA027101603868616A20F4403000E07B
:1007B00051E008433860CAF87080FFF785FE0746AD
:1007C00005E000BFFFF780FEC01B022843D8286861
:1007D000C0438000F6D42078800653D5344840309A
:1007E000016841F0805101600068344D00F0805094
:1007F0000090286840F480702860FFF765FE074687
:1008000005E000BFFFF760FEC01B022823D8286860
:10081000C005F7D5274D143D286810F4407020D04E
:10082000218D01F4407181421BD0286820F4407171
:100830002348C0F80080066029602868C00710D0EF
:10084000FFF742FE064641F2883707E0FFF73CFE1D
:10085000801BB84202D90320BDE8F88F28688007C2
:10086000F4D5A16A1248C1F301220830032A13D03B
:10087000016821F4F81101602868218DC1F30B0192
:10088000084328602078C00604D50E4994F82C004F
:10089000C1F8E0010020DFE702680B4B22F4F812F8
:1008A00019400A430260E7E7000047428C380240E3
:1008B000003802408438024088380240007000400E
:1008C000400E474200104742FFFCFF0F2DE9F04762
:1008D0000E46050065D0DFF81481D8F80000F7B2A5
:1008E00000F00F00B04207D288F80070D8F800007E
:1008F00000F00F00B04254D128683D4C810712D55A
:10090000400703D5206840F4E050206028780007B5
:1009100003D5206840F4604020602068A96820F07A
:10092000F000084320602878C0072DD0304968685F
:100930000839012812D0022813D0032811D00968E1
:10094000890700292DDA216821F003010143216084
:10095000FFF7BAFD814641F2883A0EE00968890343
:10096000EFE709688901ECE7FFF7AEFDA0EB0901AD
:10097000514502D90320BDE8F0872068696800F07E
:100980000C00B0EB810FEFD1D8F80010404601F019
:100990000F01B14207D90770006800F00F00B042A4
:1009A00001D00120E7E72878400705D52068E968ED
:1009B00020F4E050084320602878000706D520681E
:1009C000296920F4604040EAC100206000F038F856
:1009D0002168084AC1F30311515CC8400649086008
:1009E00006480068FFF798FD0020C4E7003C02407D
:1009F00008380240E0170008140000200C00002016
:100A00000448054900680968044AC1F38221515C21
:100A1000C84070471400002008380240F017000852
:100A20000448054900680968044AC1F34231515C31
:100A3000C84070471400002008380240F017000832
:100A4000154810B5006810F00C02144813D041107E
:100A5000042A0FD0082A0ED10F4C241F22682368C5
:100A600002F03F025B0207D52068C0F38810A0FBAC
:100A7000010106E0084610BD2168C1F38811A1FB01
:100A800000010023FFF7AEFB2168C1F30141491CBF
:100A90004900B0FBF1F010BD083802400024F4001A
:100AA0002DE9F84F04006ED02078DFF83C93C007A2
:100AB000A9F104054AD009F104000168C1F38101DC
:100AC000012908D00068C0F3810002280AD1D9F8B2
:100AD0000000400206D52868800337D560680028EA
:100AE000E1D033E06068B0F5803F10D0B0F5A02FC2
:100AF000286810D020F480302860286820F48020F6
:100B000028606068A8B1FFF7DFFC06460DE02868A2
:100B100040F48030F4E740F480202860F7E700BF1D
:100B2000FFF7D2FC801B642873D828688003F7D5B0
:100B30000CE0FFF7C9FC064605E000BFFFF7C4FC68
:100B4000801B6428F0D828688003F7D42078DFF869
:100B50009C8280074FF0000A3ED5A348001D016823
:100B600011F00C0F08D00068C0F3810002280BD1EF
:100B7000D9F80000400207D42868800716D5E0683D
:100B8000012800D112E02BE1E068B8B10120C8F8DB
:100B90000000FFF799FC064605E000BFFFF794FC54
:100BA000801B0228C0D828688007F7D528682169EB
:100BB00020F0F80040EAC10028600DE0C8F800A06D
:100BC000FFF782FC064604E0FFF77EFC801B02284C
:100BD0001FD828688007F7D42078000722D5824ED6
:100BE00083486169703671B101210160FFF76CFCC7
:100BF000074604E0FFF768FCC01B022809D83068EC
:100C00008007F7D50EE0C0F800A0FFF75DFC0746AF
:100C100005E082E0FFF758FCC01B02287DD8306851
:100C20008007F7D42078400768D5DFF8BCB10027EB
:100C30000BF13C0BDBF80000C0000BD4DBF800101C
:100C400041F08051CBF80010DBF80000012700F0E4
:100C500080500090674E3068C00510D4306840F472
:100C600080703060FFF730FC009005E0FFF72CFC4F
:100C70000099401A022850D83068C005F6D55A4E5F
:100C8000A0686C3601280FD00528306810D020F0FD
:100C900001003060306820F004003060A068B8B116
:100CA000FFF712FC00900FE0306840F00100F4E71D
:100CB00040F004003060F7E7FFF706FC0099411AA6
:100CC00041F28830814266D830688007F4D50EE062
:100CD000FFF7FAFB009007E0FFF7F6FB0099411AD7
:100CE00041F28830814256D830688007F4D42FB161
:100CF000DBF8001021F08051CBF80010A069C8B3D8
:100D00003949091D0968C1F3810102294AD0022825
:100D1000504607D0C8F8600000E03CE0FFF7D4FB85
:100D200004463BE04746C8F86000FFF7CDFB0646A7
:100D300005E000BFFFF7C8FB801B02282BD82868FE
:100D40008001F7D4D4E907010843A16A2A4A490877
:100D500002EB0141626A41EA8211084394F82C10C7
:100D600040EA0161C9F8001001203866FFF7ACFBCA
:100D7000044606E036E000BFFFF7A6FB001B022892
:100D800009D828688001F7D52CE000BFFFF79CFB4D
:100D9000001B022802D90320BDE8F88F28688001D3
:100DA000F4D41FE00128F7D0D9F80000E26900F47C
:100DB0008001914214D1226A00F03F0191420FD18B
:100DC00047F6C071626A0140914209D1A26A00F4FB
:100DD0004031914204D1E16A00F07060884201D054
:100DE0000120D9E70020D7E704380240000047423D
:100DF000800E4742007000400000FFFF70477047C0
:100E000010B5044600688168C9040CD5C068C005E7
:100E100009D52046FFF7F3FF2068C16801F0800183
:100E200061F4C071C1602068816889040CD5C06814
:100E3000800509D52046FFF7E1FF2068C16801F071
:100E4000800161F42071C16003494FF400300860F3
:100E50000120607710BD0000143C014010B50B4626
:100E60000168896A596001680969C1F30E019960D6
:100E7000006801680E480140C1F305401870C1F3D5
:100E800006245C7001F07F049C70402404EA114148
:100E9000D97052B900F00AFB1870587800F006FBC0
:100EA0005870987800F002FB9870002010BD000088
:100EB0007F7F7F0070B5040002D0607F10B106E034
:100EC000012070BD00202077204600F049F8022064
:100ED00060772168CA204862216853204862204612
:100EE00000F0F8FAFF25042618BB206881681B4A29
:100EF000114081602168886862681043D4E9042346
:100F00001A43104388602168E0680861206801691D
:100F1000228941EA024101612068C16821F0800113
:100F2000C16020688068800607D4204600F0C6F9BA
:100F300018B1206845626677C2E72068016C21F429
:100F4000802101642068016CA2691143016420685A
:100F5000456201206077002070BD0000BFFF8FFF59
:100F600010B50068084988420CD108490120086082
:100F7000002211462920FFF715FBBDE8104029206B
:100F8000FFF702BB10BD0000002800403C0E4742A6
:100F9000F8B503465A480C464FF4FA410068B0FBD6
:100FA000F1F0491148430090187F012863D00126D1
:100FB0001E770220587718680025002A80684FEABB
:100FC00040605AD0002800DBE570A0782278E778EE
:100FD00040EA02406278E169120242EA07421043A5
:100FE00094F8202040EA026008436169A26908433E
:100FF00061681F681143CA227A621F6853227A62AD
:10100000626AFF27B2F5807F1A684FF0030C94687C
:101010004ED024F4007494601A68D46804F08004FC
:1010200064F42074D4601A68009CB4F1010ECDF809
:1010300000E05ED3D468A407F6D510621868816416
:101040001868816841F4007181601868816841F412
:10105000005181602B48016841F40031016029484A
:101060000830016841F400310160186847625E771A
:101070001D770020F8BD0220F8BD002800DBE570D8
:10108000207800F01CFA0204607800F018FA42EAB6
:101090000022A07800F013FA0243E07842EA00420E
:1010A00094F8200000F00BFA42EA0060E1699BE747
:1010B00024F4807494601A68D46804F0800464F4A2
:1010C000C074D4601A68009CB4F1010ECDF800E041
:1010D0000FD3D468E407F6D0D0611868416418686B
:1010E000816841F4807181601868816841F48051A1
:1010F000AFE7576283F81DC01D770320F8BD0000DD
:1011000014000020003C01402DE9F0470446007F18
:101110000B4601281FD04FF0010984F81C900220D3
:101120006077DAB19878D97840EA0145587819782B
:10113000000240EA413005432168CA204862216824
:1011400053204862204600F0C5F90026FF274FF0E3
:10115000040860BB1AE00220BDE8F0875878C10699
:1011600003D500F0EF000A305870D87800F0A7F9E6
:101170000204587800F0A3F942EA0022987800F0BF
:101180009EF90243187842EA4035D5E70F480540FA
:10119000206845602068C16821F08001C160206836
:1011A000806880060AD4204600F088F830B12068B4
:1011B000476284F81D8026770120CDE720684762CA
:1011C00084F81D9026770020C6E700003FFFFF004F
:1011D0002DE9F0470446007F0D46012827D04FF047
:1011E000010A84F81CA0022060772068002680682D
:1011F0004FEA4060F2B1002800DBEE70A878297851
:1012000040EA01476878E978000240EA0140074374
:101210002168CA204862216853204862204600F0B5
:1012200059F94FF0FF084FF00409A0BB16E0022067
:10123000BDE8F087002800DBEE70287800F03FF969
:101240000204687800F03BF942EA0022A87800F036
:1012500036F90243E87842EA0047D9E716480740E2
:10126000206807602068816821F480218160D5E9C9
:101270000301084321688A68104388602068C168B8
:1012800021F08001C1602068806880060BD4204670
:1012900000F014F838B12168C1F8248084F81D905A
:1012A00026770120C4E72168C1F8248084F81DA0B6
:1012B00026770020BCE700007F7F7F0070B50446E2
:1012C0000068C16821F0A001C160FFF7FDF8054684
:1012D0004FF47A7607E000BFFFF7F6F8401BB04204
:1012E00001D9032070BD2068C0688006F4D50020B5
:1012F00070BD10B5401EB0F1807F01D3012010BD3C
:101300004FF0E02460610F21601700F0F8F9002031
:10131000A06107202061002010BD70B5040004D03A
:1013200094F83900002510B106E0012070BD84F862
:101330003850204600F022F8242084F83900206834
:10134000C16821F40051C160204600F043F92068D3
:10135000016921F4904101612068416921F02A016D
:1013600041612068C16841F40051C160E5632020FB
:1013700084F8390084F83A00002070BD10B586B0BA
:10138000044614216846FEF765FF14492068884228
:1013900021D11348016841F400210160006800F484
:1013A000002005900E481038016841F004010160EA
:1013B0000068694600F0040005904FF4406000901A
:1013C0000220019001200290032003900820049045
:1013D0000448FEF78FFF06B010BD0000004C00402F
:1013E0004038024000080240FEE7000030B591B0EE
:1013F00014210AA8FEF72EFF0024282168460F9426
:10140000FEF728FF23482249C0E900147F218160AC
:10141000FF21C0E9031444618461FFF74BFD0E20F6
:101420008DF828002D208DF8290003208DF82A0042
:101430000D9400220AA917480E94FFF7C9FE012552
:101440008DF83C5006208DF83D001D208DF83E00A3
:1014500014208DF83F0000220FA90E48FFF754FE1C
:101460008DF800408DF801400A208DF802000494A8
:1014700028020194039409900594069407948DF82A
:101480002050002269460348FFF782FD11B030BDAD
:101490000028004018000020FEE770477047000059
:1014A0000148FFF7ADBC000018000020010901EB66
:1014B000810100F00F0000EB4100C0B27047002135
:1014C00002E00A38C0B2491C0A28FAD2090740EAE9
:1014D0001160704770B504460068C168490614D4AD
:1014E0004FF0FF31C160FEF7EFFF05464FF47A760B
:1014F00007E000BFFEF7E8FF401BB04201D9032020
:1015000070BD2068C0684006F4D5002070BD7047EB
:10151000FEF7E0BF30B59FB030216846FEF79AFE77
:10152000142118A8FEF796FE30210CA8FEF792FEB3
:101530001F480025016841F080510160006800F0FB
:1015400080501D901B48016841F4404101600068D3
:10155000022400F440401D90052000904FF480309C
:101560000190012002908005CDE9064008AA0420E0
:10157000B42182E813000B906846FFF791FAFFF759
:1015800043F818A90F2081E831004FF4A0501B90B8
:10159000E0021C90052118A8FFF798F920200C9074
:1015A000C00016900CA8FFF767F81FB030BD000010
:1015B00040380240007000400548016841F4700165
:1015C000016003494FF000608039086070470000F7
:1015D00088ED00E02DE9F041044600680169E26809
:1015E00021F44051114301612169A068E269084377
:1015F0006169114308432168CA6849F20C639A4340
:101600000243CA6020684169A26921F44071114314
:101610004161E069192764253226B0F5004F354A4B
:10162000354920684FF0000806D0884201D090422A
:1016300036D1FFF7F5F935E0884201D0904202D16A
:10164000FFF7EEF901E0FFF7DBF961684A18A0FB4C
:10165000070148EB0803FEF7C5FD0146B0FBF5F0B6
:101660000201B1FBF5F06FF01803584301EB800065
:1016700006EBC000B0FBF5F000F0F80002EB400212
:10168000B1FBF5F0584301EB800006EBC000B0FB66
:10169000F5F000F00700216810448860BDE8F08193
:1016A000FFF7AEF961688B0F8A00A0FB0701FEF718
:1016B00099FD0146B0FBF5F06FF01802504301EBC5
:1016C000800006EB0010B0FBF5F000F0F002B1FB7B
:1016D000F5F002EB0012B1FBF5F06FF01803584380
:1016E00001EB800006EB0010B0FBF5F000F00F00FE
:1016F000D1E700000014014000100140FEE7090797
:10170000090E002804DB00F1E02080F80014704787
:1017100000F00F0000F1E02080F8141D704702E097
:1017200008C8121F08C1002AFAD17047704700206C
:1017300001E001C1121F002AFBD1704708B5FEF776
:10174000D1FEFFF7E7FE22480024016841F00401C2
:101750000160016801F004010091016841F080011D
:101760000160016801F080010091016841F0010110
:101770000160006800F001000090FFF737FE164896
:10178000144901604FF49641C0E901140C21C46072
:10179000C0E904418461C461FFF7BFFD0E4D0F4CE9
:1017A00040354FF4FA760C4900224031A1F1600037
:1017B000FFF754FBA8782070687860702878A070D4
:1017C0006068401C60603046FEF782FDEBE7000079
:1017D00030380240004C004038000020000000205B
:1017E00000000000000000000102030406070809D1
:1017F0000000000001020304181800080000002087
:10180000180000001E1700083018000818000020FB
:10181000780400002E1700080000000000000000FF
:101820000100000010000000000000000024F4008F
:04000005080001AD41
:00000001FF
